{
  "contractName": "BatchDeposit",
  "abi": [
    {
      "inputs": [
        {
          "internalType": "address",
          "name": "deposit_contract_address",
          "type": "address"
        }
      ],
      "stateMutability": "nonpayable",
      "type": "constructor"
    },
    {
      "anonymous": false,
      "inputs": [
        {
          "indexed": false,
          "internalType": "address",
          "name": "to",
          "type": "address"
        },
        {
          "indexed": false,
          "internalType": "uint256",
          "name": "amount",
          "type": "uint256"
        }
      ],
      "name": "LogDepositLeftover",
      "type": "event"
    },
    {
      "anonymous": false,
      "inputs": [
        {
          "indexed": false,
          "internalType": "bytes",
          "name": "pubkey",
          "type": "bytes"
        },
        {
          "indexed": false,
          "internalType": "bytes",
          "name": "withdrawal",
          "type": "bytes"
        }
      ],
      "name": "LogDepositSent",
      "type": "event"
    },
    {
      "inputs": [],
      "name": "kDepositAmount",
      "outputs": [
        {
          "internalType": "uint256",
          "name": "",
          "type": "uint256"
        }
      ],
      "stateMutability": "view",
      "type": "function",
      "constant": true
    },
    {
      "inputs": [
        {
          "internalType": "bytes[]",
          "name": "pubkeys",
          "type": "bytes[]"
        },
        {
          "internalType": "bytes[]",
          "name": "withdrawal_credentials",
          "type": "bytes[]"
        },
        {
          "internalType": "bytes[]",
          "name": "signatures",
          "type": "bytes[]"
        },
        {
          "internalType": "bytes32[]",
          "name": "deposit_data_roots",
          "type": "bytes32[]"
        }
      ],
      "name": "batchDeposit",
      "outputs": [],
      "stateMutability": "payable",
      "type": "function",
      "payable": true
    }
  ],
  "bytecode": "0x608060405234801561001057600080fd5b5060405161095e38038061095e83398101604081905261002f91610054565b600080546001600160a01b0319166001600160a01b0392909216919091179055610084565b60006020828403121561006657600080fd5b81516001600160a01b038116811461007d57600080fd5b9392505050565b6108cb806100936000396000f3fe6080604052600436106100295760003560e01c80634816e70e1461002e578063ca0bfcce1461005d575b600080fd5b34801561003a57600080fd5b5061004b6801bc16d674ec80000081565b60405190815260200160405180910390f35b61007061006b366004610633565b610072565b005b868514801561008057508683145b801561008b57508681145b6101195760405162461bcd60e51b815260206004820152604e60248201527f2342617463684465706f7369742062617463684465706f73697428293a20416c60448201527f6c20706172616d657465722061727261792773206d757374206861766520746860648201526d329039b0b6b2903632b733ba341760911b608482015260a4015b60405180910390fd5b866101b25760405162461bcd60e51b815260206004820152605960248201527f2342617463684465706f7369742062617463684465706f73697428293a20416c60448201527f6c20706172616d657465722061727261792773206d757374206861766520612060648201527f6c656e6774682067726561746572207468616e207a65726f2e00000000000000608482015260a401610110565b6101c56801bc16d674ec8000008861049e565b3410156102715760405162461bcd60e51b815260206004820152606860248201527f2342617463684465706f7369742062617463684465706f73697428293a20457460448201527f686572206465706f7369746564206e6565647320746f206265206174206c656160648201527f73743a203332202a2028706172616d6574657220607075626b6579735b5d60206084820152673632b733ba34149760c11b60a482015260c401610110565b6000805b88811015610419576000546001600160a01b031663228951186801bc16d674ec8000008c8c858181106102aa576102aa6106f7565b90506020028101906102bc919061070d565b8c8c878181106102ce576102ce6106f7565b90506020028101906102e0919061070d565b8c8c898181106102f2576102f26106f7565b9050602002810190610304919061070d565b8c8c8b818110610316576103166106f7565b905060200201356040518963ffffffff1660e01b815260040161033f979695949392919061077d565b6000604051808303818588803b15801561035857600080fd5b505af115801561036c573d6000803e3d6000fd5b50505050507f737feedde71ce80c08f73125e4350b001be2dfb6a00fb455086c2b0a514cdfac8a8a838181106103a4576103a46106f7565b90506020028101906103b6919061070d565b8a8a858181106103c8576103c86106f7565b90506020028101906103da919061070d565b6040516103ea94939291906107ce565b60405180910390a1610405826801bc16d674ec8000006104b1565b91508061041181610816565b915050610275565b5061042d6801bc16d674ec8000008961049e565b811461043b5761043b610831565b600061044734836104bd565b905080156104925760408051338152602081018390527f315b4b6ebed620c198d7051f7602ad593b045d0299ca65a291a29af54cf076c9910160405180910390a161049233826104c9565b50505050505050505050565b60006104aa8284610847565b9392505050565b60006104aa8284610866565b60006104aa828461087e565b804710156105195760405162461bcd60e51b815260206004820152601d60248201527f416464726573733a20696e73756666696369656e742062616c616e63650000006044820152606401610110565b6000826001600160a01b03168260405160006040518083038185875af1925050503d8060008114610566576040519150601f19603f3d011682016040523d82523d6000602084013e61056b565b606091505b50509050806105e25760405162461bcd60e51b815260206004820152603a60248201527f416464726573733a20756e61626c6520746f2073656e642076616c75652c207260448201527f6563697069656e74206d617920686176652072657665727465640000000000006064820152608401610110565b505050565b60008083601f8401126105f957600080fd5b50813567ffffffffffffffff81111561061157600080fd5b6020830191508360208260051b850101111561062c57600080fd5b9250929050565b6000806000806000806000806080898b03121561064f57600080fd5b883567ffffffffffffffff8082111561066757600080fd5b6106738c838d016105e7565b909a50985060208b013591508082111561068c57600080fd5b6106988c838d016105e7565b909850965060408b01359150808211156106b157600080fd5b6106bd8c838d016105e7565b909650945060608b01359150808211156106d657600080fd5b506106e38b828c016105e7565b999c989b5096995094979396929594505050565b634e487b7160e01b600052603260045260246000fd5b6000808335601e1984360301811261072457600080fd5b83018035915067ffffffffffffffff82111561073f57600080fd5b60200191503681900382131561062c57600080fd5b81835281816020850137506000828201602090810191909152601f909101601f19169091010190565b60808152600061079160808301898b610754565b82810360208401526107a481888a610754565b905082810360408401526107b9818688610754565b91505082606083015298975050505050505050565b6040815260006107e2604083018688610754565b82810360208401526107f5818587610754565b979650505050505050565b634e487b7160e01b600052601160045260246000fd5b600060001982141561082a5761082a610800565b5060010190565b634e487b7160e01b600052600160045260246000fd5b600081600019048311821515161561086157610861610800565b500290565b6000821982111561087957610879610800565b500190565b60008282101561089057610890610800565b50039056fea26469706673582212200a921112c61ee5b6574a21732056f61ed7772264db37598756baccc90bd619f064736f6c634300080a0033",
  "immutableReferences": {},
  "source": "// SPDX-License-Identifier: MIT\n\npragma solidity ^0.8.0;\n\nimport \"@openzeppelin/contracts/utils/math/SafeMath.sol\";\nimport \"@openzeppelin/contracts/utils/Address.sol\";\n\nimport \"./IDeposit.sol\";\n\n// Based on Stakefish and Staked.us contracts.\n//\n// We don't need fees, but we want truffle & unit tests.\ncontract BatchDeposit {\n    using Address for address payable;\n    using SafeMath for uint256;\n\n    uint256 public constant kDepositAmount = 32 ether;\n    IDeposit private depositContract_;\n\n    event LogDepositLeftover(address to, uint256 amount);\n    event LogDepositSent(bytes pubkey, bytes withdrawal);\n\n    // We pass the address of a contract here because this will change\n    // from one environment to another. On mainnet and testnet we use\n    // the official addresses:\n    //\n    // - testnet: 0xff50ed3d0ec03aC01D4C79aAd74928BFF48a7b2b (https://goerli.etherscan.io/address/0xff50ed3d0ec03aC01D4C79aAd74928BFF48a7b2b)\n    // - mainnet: 0x00000000219ab540356cbb839cbe05303d7705fa (https://etherscan.io/address/0x00000000219ab540356cbb839cbe05303d7705fa)\n    //\n    // The migration script handles this.\n    constructor (address deposit_contract_address) {\n\tdepositContract_ = IDeposit(deposit_contract_address);\n    }\n\n    function batchDeposit(\n        bytes[] calldata pubkeys,\n        bytes[] calldata withdrawal_credentials,\n        bytes[] calldata signatures,\n        bytes32[] calldata deposit_data_roots\n    ) external payable {\n        require(\n            pubkeys.length == withdrawal_credentials.length &&\n            pubkeys.length == signatures.length &&\n            pubkeys.length == deposit_data_roots.length,\n            \"#BatchDeposit batchDeposit(): All parameter array's must have the same length.\"\n        );\n        require(\n            pubkeys.length > 0,\n            \"#BatchDeposit batchDeposit(): All parameter array's must have a length greater than zero.\"\n        );\n        require(\n            msg.value >= kDepositAmount.mul(pubkeys.length),\n            \"#BatchDeposit batchDeposit(): Ether deposited needs to be at least: 32 * (parameter `pubkeys[]` length).\"\n        );\n\n        uint256 deposited = 0;\n\n        for (uint256 i = 0; i < pubkeys.length; i++) {\n            depositContract_.deposit{value: kDepositAmount}(\n                pubkeys[i],\n                withdrawal_credentials[i],\n                signatures[i],\n                deposit_data_roots[i]\n            );\n\t    emit LogDepositSent(pubkeys[i], withdrawal_credentials[i]);\n            deposited = deposited.add(kDepositAmount);\n        }\n\n        assert(deposited == kDepositAmount.mul(pubkeys.length));\n\n        uint256 ethToReturn = msg.value.sub(deposited);\n        if (ethToReturn > 0) {\n          emit LogDepositLeftover(msg.sender, ethToReturn);\n\t  Address.sendValue(payable(msg.sender), ethToReturn);\n        }\n    }\n}\n",
  "sourcePath": "/Users/mxs/Code/skZ/deposit-batch-contract/contracts/BatchDeposit.sol",
  "compiler": {
    "name": "solc",
    "version": "0.8.10+commit.fc410830.Linux.g++"
  },
  "schemaVersion": "3.4.3",
  "updatedAt": "2021-11-17T15:12:40.507Z",
  "networkType": "ethereum",
  "devdoc": {
    "kind": "dev",
    "methods": {},
    "version": 1
  },
  "userdoc": {
    "kind": "user",
    "methods": {},
    "version": 1
  }
}